:10C00000314000421542200175F335D0085A3F40B7
:10C0100000000F930724824520012F839F4F1ACFE2
:10C020000002F9233F402C000F9306248245200193
:10C030001F83CF430002FA23B240805A2001B2404E
:10C040008A008200F240110080003F43B0129EC07F
:10C050003F43B0129EC03F43B0129EC03F43B01258
:10C060009EC03F401CC1B012BCCE3F401CC1B012AC
:10C07000BCCE3F401CC1B012BCCE3F401CC1B01270
:10C08000BCCE3F4041C1B012BCCEB012E6C53F406D
:10C0900067C1B012BCCE32D2FF3F304012CF033C5A
:10C0A000034303433F530F93FB2330410E4F5F4243
:10C0B00081003FF2FC23C24E840030410F120E1269
:10C0C0000D120C125F428500F240100081007F903B
:10C0D0000A0019247F900D0016245E4220027E90F3
:10C0E0001F00062C4D4ECD4F00025E53C24E200263
:10C0F000B1C0100008003C413D413E413F41B1C04C
:10C10000F000000000135F422002CF4300023F40D6
:10C110000002B01284C7C2432002EA3F0D0A3D3D2F
:10C120003D3D3D3D2054657374696E6720426F6FDD
:10C1300074204C6F61646572203D3D3D3D3D3D0D79
:10C14000000D0A3D3D3D3D3D3D3D205772697469FE
:10C150006E67206170705F6C6F61646572203D3D39
:10C160003D3D3D3D3D0D00536574757020636F6D21
:10C17000706C6574652E0000E2D32900E2D32A00BA
:10C180008243980030410B120A12F2F0FDFF2900A1
:10C19000B2409F009A0092D3980092B39800FD237A
:10C1A000B240FF009A0092D398001F4298001FF3FC
:10C1B000FC231E429A004D4E0C4FB240FF009A00E5
:10C1C00092D398001B4298001BF3FC231A429A005A
:10C1D0004E4A0F4B4FEE0FEE8F107EF38E100EDC9B
:10C1E0000FDDB240FF009A0092D398001B429800E6
:10C1F0001BF3FC231A429A00E2D329004C4A0D4B50
:10C200000EDC0FDD3A413B4130414F4F824F9A00E7
:10C2100092D3980092B39800FD233041B240FF00C2
:10C220009A0092D3980092B39800FD231F429A007F
:10C230003041F2F0FDFF2900B24005009A0092D390
:10C24000980092B39800FD23B240FF009A0092D369
:10C25000980092B39800FD231F429A00E2D3290070
:10C2600030410C4EF2F0FDFF2900B24020009A0050
:10C2700092D3980092B39800FD234E4F824E9A00BD
:10C2800092D3980092B39800FD230D4C0E4F8D1061
:10C290008E104DEE0DEE7EF34D4D824D9A0092D3F1
:10C2A000980092B39800FD234C4C824C9A0092D394
:10C2B000980092B39800FD23E2D3290030410B127D
:10C2C0000A123A4000010A9C05280C9304203A41C6
:10C2D0003B4130410C4AF2F0FDFF2900A2439A0095
:10C2E00092D3980092B39800FD234A4F824A9A0055
:10C2F00092D3980092B39800FD230A4E0B4F8A10F8
:10C300008B104AEB0AEB7BF34F4A824F9A0092D391
:10C31000980092B39800FD234E4E824E9A0092D31D
:10C3200098001E4298001EF3FC230F4D0F5E6F4FC6
:10C33000824F9A0092D3980092B39800FD231E5327
:10C340000E9CF32BE2D329003A413B4130410B12C2
:10C350000A123A4000010A9C05280C9304203A4135
:10C360003B4130410C4AF2F0FDFF2900B2400A0087
:10C370009A0092D3980092B39800FD234A4F824AC4
:10C380009A0092D3980092B39800FD230A4E0B4F67
:10C390008A108B104AEB0AEB7BF34F4A824F9A00CC
:10C3A00092D3980092B39800FD234E4E824E9A008D
:10C3B00092D398001E4298001EF3FC230F4D0F5E8F
:10C3C0006F4F824F9A0092D3980092B39800FD234A
:10C3D0001E530E9CF32BE2D329003A413B413041DE
:10C3E000F2F0FDFF2900B24005009A0092D39800B8
:10C3F00092B39800FD23B240FF009A0092D39800B8
:10C4000092B39800FD231F429A00E2D329005FF304
:10C410003041F2F0FDFF2900B24006009A0092D3AD
:10C42000980092B39800FD23E2D329003041F2F046
:10C43000FDFF2900A2429A0092D3980092B398007F
:10C44000FD23E2D3290030410B120A120A4C0C934F
:10C450003E24F2F0FDFF2900B24003009A0092D37F
:10C46000980092B39800FD234C4F824C9A0092D3CF
:10C47000980092B39800FD230B4E0C4F8B108C103C
:10C480004BEC0BEC7CF34F4B824F9A0092D398000D
:10C4900092B39800FD234E4E824E9A0092D398009C
:10C4A0001E4298001EF3FC23B240FF009A0092D374
:10C4B000980092B39800FD231B429A000F4D0F5E27
:10C4C000CF4B00001E530E9AEF2BE2D329003A41C6
:10C4D0003B4130414E4F7F50D0FF7F900A001128E2
:10C4E0004D4E7D50BFFF7F4005004F9D0B2C4D4EA4
:10C4F0007D509FFF4F9D04284F4E7F50A9FF304134
:10C500004F4330414F4E7F50C9FF30410B120A124A
:10C510000B4F6F4FB012D4C44A4F5F4B0100B012A3
:10C52000D4C44E4A0E5E0E5E0E5E0E5E4FDE3A4183
:10C530003B4130415265616420646174613A202559
:10C54000582025580A004C6F6164696E672061703D
:10C55000702070726F636573736F722066726F6D97
:10C5600020666C6173682025642E0A004C6F61643C
:10C57000696E67206170702070726F636573736F8E
:10C580007220636F6D706C6574652E0053746172F8
:10C590007420616464726573732069733A2025584E
:10C5A0002025582025580A004E6F20617070207099
:10C5B000726F636573736F7220636F646520666F5B
:10C5C000756E6420696E20666C6173682E20506CF5
:10C5D000656173652070726F6772616D2064657646
:10C5E0006963652E00000B120A1209120812071265
:10C5F000061231507EFFC243260282432802824344
:10C600002A02B01278C12C430D410E433F40060070
:10C61000B01248C45F4101000F125F4102000F12C7
:10C62000301234C5B01226CA31500600F190A8FF6E
:10C6300000002824B24000202802B24006002A024E
:10C640003F40A8C5B012BCCE1C4228021D422A029F
:10C650004E4C0E120E4C0F4D8E108F104EEF0EEFF3
:10C660007FF34E4E0E124F4D0F1230128CC5B0128A
:10C6700026CA31508A0036413741384139413A4162
:10C680003B4130415F4101006F930D245F93D22302
:10C69000B24000602802B24006002A023740002063
:10C6A000384006000A3CB24000202802B240060092
:10C6B0002A0237400060384006004F4F0F123012F8
:10C6C00046C5B01226CA21529243A80009430A4324
:10C6D000064126530B413B5082003C4080000D46F2
:10C6E0000E490F4A0E570F68B01248C439508000E7
:10C6F0000A630F466E4F8E105C4F01000EDC824EB7
:10C70000AA002F530B9FF62339900040E6230A938B
:10C71000E4238243A8003F406CC5B012BCCE943FD6
:10C72000574149540052454144590052582043480A
:10C7300045434B53554D3A20253032582530325819
:10C7400025303258253032580A0056462043484595
:10C75000434B53554D3A2025303258253032582519
:10C76000303258253032580A00535543434553530D
:10C77000004641494C3A2042414420434845434BFE
:10C7800053554D000B120A12091208120712061215
:10C790000512315078FF074F5B4226025B9351240C
:10C7A0004B930E246B937324C243260231508800AE
:10C7B000354136413741384139413A413B413041B9
:10C7C000FF9050000000F223FF9052000100EE2382
:10C7D000FF904F000200EA23FF9047000300E6238A
:10C7E0003F4020C7B012BCCE6A42B01212C44E4BBA
:10C7F0000F434FEE0FEE8F107EF38E100E5E0F6F15
:10C800000E5E0F6F0E5E0F6F0E5E0F6F1E522802D0
:10C810001F622A02B01262C2B012E0C34F93FC231F
:10C820005B537A534A9FE123D24326029242280265
:10C83000220292422A0224023F4025C7B012BCCEF7
:10C84000B53FB0120CC5C14F00000F472F53B012B7
:10C850000CC5C14F0100B01212C42C430D411E4241
:10C8600022021F422402B012BEC21E4222021F42F6
:10C8700024022E530F63824E2202824F24021E8214
:10C8800028023E900040922BE24326028F3FB012D6
:10C890000CC54B4F0A433BF0FF008B100F472F5343
:10C8A000B0120CC5C14F80000F472F52B0120CC5FB
:10C8B000454F0F473F500600B0120CC55E41800047
:10C8C0000D4A064A074B06DD07DE81468400814794
:10C8D00086004B4F0C4A81DB840081DC86004B458F
:10C8E0004CEB0CEB8C107BF38B1081DB840081DC38
:10C8F000860091422802800091422A02820005436C
:10C9000006430A450B46074117533C4080000D4142
:10C910001E4180001F4182000E550F66B01248C4B0
:10C920003550800006634D434F4D0E410E5F6E4EF5
:10C930008E100F576F4F084F08DE09430A580B69D6
:10C940006D537D9080FFF02335900040DE230699E3
:10C95000DC235F4184000F121E4186001F418800C6
:10C960008E108F104EEF0EEF7FF34F4E0F121F41C0
:10C970008A004E4F0E128F104F4F0F1230122BC7DE
:10C98000B01226CA31500A004F4A0F120E4A0F4BFE
:10C990008E108F104EEF0EEF7FF34F4E0F120F4B96
:10C9A0004E4B0E128F104F4F0F1230124AC7B0125B
:10C9B00026CA31500A00819A840006243F4071C77C
:10C9C000B012BCCE3040A8C7819B8600F723F1404F
:10C9D000A8FF00001E4228021F422A023E900020AB
:10C9E0001C243E9000601324B01212C42C430D414D
:10C9F0000E433F400600B0124EC3B012E0C34F9347
:10CA0000FC233F4069C7B012BCCE3040A8C73F905E
:10CA10000600EA23E1430100E73F3F900600E423DC
:10CA2000D1430100E13F0D412D521E4102003F4024
:10CA3000ACC0B01252CB30410D4E0E4F3F40ACC097
:10CA4000B01252CB30410B120A120912081207120F
:10CA500006120512041221830A4F084E074D0F4C8F
:10CA60008F108F114D4C4E4C7EF010001024F14071
:10CA7000300000007DF0400003247F405800023C5D
:10CA80007F407800C14F010006412653083C4F9E6D
:10CA90000524C14F000006411653013C06410681A2
:10CAA0006CB22B200F483F531F53CF930000FC2341
:10CAB000054F0588079602280786013C07437CF04E
:10CAC00020000E240943063C0F410F596F4F8F1170
:10CAD00019538A120996F83B0B46744030000A3C01
:10CAE0007440200009430B49053C4F448F118A12C2
:10CAF0001B5315530597F92B023C09430B49095168
:10CB0000053C1B536F498F118A1219530F490F812E
:10CB10000F96F73B053C6F488F118A1218531B5331
:10CB2000C8930000F823043C3F4020008A121B53A6
:10CB30000B97FA2B0F4B2153344135413641374186
:10CB4000384139413A413B413041286E756C6C297E
:10CB500000000B120A12091208120712061205121F
:10CB600004123150DEFF814F1800814E1A00814DB2
:10CB70000E00814310001A411000814A120030401B
:10CB800094CE0A930B207E902500022430407ECE66
:10CB9000814A0000814A100030408ECE7E906300B2
:10CBA000A3247F4063004F9E2A387E903000782473
:10CBB0007F50CDFF4F9E19387E902A005B247F5016
:10CBC000FAFF4F9E09387E90200049247E90230072
:10CBD000022430407ECE323C7E902B003B247E905F
:10CBE0002D00022430407ECE313C7F4039004F9EE4
:10CBF0006C347E905800022430407ECEA93C7E905A
:10CC000070008F247F4070004F9E0C387E9069002A
:10CC1000A3247E906C0016247E9064000224304091
:10CC20007ECE9A3C7E90750099247E90780099245F
:10CC30007E907300022430407ECE5D3CF1D2000035
:10CC400030408ECED1D3000030408ECEE1D20000F5
:10CC500030408ECEF1402B00010030408ECEF1905E
:10CC60002B000100022030408ECEF1402000010058
:10CC700030408ECE1C410E002C531F410E002E4F13
:10CC80000E930338814E1000073CE1D200003EE3D2
:10CC9000814E100091531000814C0E0030408ECE1A
:10CCA0008193100012206B416BF25A4302245A41C7
:10CCB00010005AF34A5A4A5A4A5A4A5A4A5A6B4137
:10CCC0007BF0DFFF4BDAC14B00001B4110000B5B18
:10CCD0000B5B1B5110000B5B8E113E50D0FF814E41
:10CCE0001000815B1000D33C1F410E006E4F2F538C
:10CCF000814F0E00C43C1B410E002B531F410E0000
:10CD00002E4F0E9302203E404ACB2C411D41100075
:10CD10001F411800B01246CA815F1200814B0E00FD
:10CD2000B43C1F410E00A14F14001F4114008F108E
:10CD30008F118F108F11814F16001541140016416D
:10CD4000160035F306F3F1D20000A1530E00303C7B
:10CD5000F1D040000000053CE1D3000034400A005F
:10CD6000023C344010006B414C4B5CF309241F41E2
:10CD70000E00254F164F02002F52814F0E00153C1A
:10CD80006BF31A410E002A534B9C09241F410E00DD
:10CD9000254F06458610861186108611043C1F41DA
:10CDA0000E00254F0643814A0E00349010000C20DF
:10CDB0000593022006930624F1B200000324F1D06B
:10CDC0001000000034401000E1B300000924069375
:10CDD0000734F1402D00010035E336E315530663B7
:10CDE000C1430D006F417FF04000C14F1E0007415D
:10CDF00037500B000F448F108F118F108F11814F00
:10CE00001C000F471F53814F20000C450D460A445C
:10CE10001B411C00B012E8CE3F4009000F9E0538B0
:10CE20007E503000C74E01000B3CC1931E0003240E
:10CE30007F403700023C7F4057004F5EC74F0100E4
:10CE40000C450D460A441B411C00B012E8CE054CAF
:10CE5000064D37530C93D5230693D32334900A0001
:10CE60000224C14301002C411D4110001E4120003D
:10CE70001F411800B01246CA815F1200063C8E1195
:10CE80000F4E91121A00915312000A43013C1A43AB
:10CE900091531A001F411A006E4F4E9302243040E6
:10CEA00082CB1F41120031502200344135413641BE
:10CEB0003741384139413A413B4130410B120B4F28
:10CEC0006F4B4F9306241B538F11B012ACC00F93BE
:10CED000F737CB93000005203F400A00B012ACC0EA
:10CEE000013C3F433B4130410FEF0EEE3940210002
:10CEF0000A3C08100E6E0F6F0F9B052802200E9A39
:10CF000002280E8A0F7B0C6C0D6D08681983F123C3
:0ACF10003041001332D0F000FD3F65
:10FFE0009AC09AC09AC0BCC09AC09AC09AC09AC01F
:10FFF0009AC09AC09AC09AC09AC09AC09AC000C0CB
:040000030000C00039
:00000001FF
