:10C00000314000421542200175F335D0085A3F40B7
:10C0100000000F930724824520012F839F4F00C10A
:10C020000002F9233F4000000F93062482452001BF
:10C030001F83CF430002FA23B240805A2001B2404E
:10C040008A008200D243800032D2D2432900F240DB
:10C0500003002A00C2432200F2400F0025003F40A7
:10C06000C0C0B012CCC0FF3F3040F8C0033C034317
:10C0700003433F530F93FB2330410E4F5F42810038
:10C080003FF2FC23C24E840030410F125F42200079
:10C090001FF30B24D2D329005F4220003FF20C2073
:10C0A000F2F0FDFF29003F410013F2F0FEFF2900EE
:10C0B0005F4220003FF2F427E2D329003F41001302
:10C0C00052756E6E696E672E2E2E00000B120B4F8E
:10C0D0006F4B4F9306241B538F11B0127AC00F93EE
:10C0E000F737CB93000005203F400A00B0127AC01A
:10C0F000013C3F433B413041001332D0F000FD3F53
:10FFE00068C068C08AC068C068C068C068C068C0AF
:10FFF00068C068C068C068C068C068C068C000C029
:040000030000C00039
:00000001FF
