:108000005542200135D0085A824502023140008095
:108010003F4000000F9308249242020220012F8368
:108020009F4F54810002F8233F4002000F93072422
:108030009242020220011F83CF430002F9232182D2
:1080400082430002B240805A2001B240AE0082005A
:10805000F24011008000F2432A00F24229003F4022
:108060003E81B0120A81814302001F4102003F900D
:1080700003001334814300002F413F93072403433F
:108080000343915300002F413F93F9239153020082
:108090001F4102003F900300ED3BF2E02000290069
:1080A000E23F304036812182814302001D410200BF
:1080B0000D9F122C814300002D410D9E072C034380
:1080C0000343915300002D410D9EF92B9153020063
:1080D0001D4102000D9FEE2B215230415E42810076
:1080E0003EF2FC23C24F84000F4330410F129253E3
:1080F00000021F4200023F90320002388243000219
:108100003F41B1C0F000000000130B120B4F6F4B4A
:108110004F9306241B538F11B012DC800F93F73757
:10812000CB93000005203F400A00B012DC80013CE8
:0E8130003F433B413041001332D0F000FD3F91
:10813E00426567696E204C656F6E2D3320546573F2
:06814E00742E2E2E00002D
:10FFE000A280A280A280A280A280A280A280A28001
:10FFF000A280EC80A280A280A280A280A280008049
:040000030000800079
:00000001FF
